{
  "contractName": "MarketPlace",
  "abi": [
    {
      "inputs": [],
      "payable": false,
      "stateMutability": "nonpayable",
      "type": "constructor"
    },
    {
      "anonymous": false,
      "inputs": [],
      "name": "LogStoreOwnerRequest",
      "type": "event"
    },
    {
      "anonymous": false,
      "inputs": [
        {
          "indexed": false,
          "name": "status",
          "type": "bool"
        }
      ],
      "name": "LogStoreOwnerStatusChanged",
      "type": "event"
    },
    {
      "anonymous": false,
      "inputs": [],
      "name": "LogStoreOwnerDelete",
      "type": "event"
    },
    {
      "anonymous": false,
      "inputs": [],
      "name": "LogStoreOwnerAddStore",
      "type": "event"
    },
    {
      "anonymous": false,
      "inputs": [],
      "name": "LogStoreOwnerAddProduct",
      "type": "event"
    },
    {
      "anonymous": false,
      "inputs": [],
      "name": "LogStoreOwnerDeleteProduct",
      "type": "event"
    },
    {
      "anonymous": false,
      "inputs": [],
      "name": "LogStoreOwnerUpdateProduct",
      "type": "event"
    },
    {
      "anonymous": false,
      "inputs": [
        {
          "indexed": false,
          "name": "quantityLeft",
          "type": "uint256"
        }
      ],
      "name": "LogUserBuyProduct",
      "type": "event"
    },
    {
      "constant": true,
      "inputs": [],
      "name": "getUserRole",
      "outputs": [
        {
          "name": "",
          "type": "uint8"
        }
      ],
      "payable": false,
      "stateMutability": "view",
      "type": "function"
    },
    {
      "constant": false,
      "inputs": [
        {
          "name": "storeOwnerAddress",
          "type": "address"
        }
      ],
      "name": "activateStoreOwner",
      "outputs": [],
      "payable": false,
      "stateMutability": "nonpayable",
      "type": "function"
    },
    {
      "constant": false,
      "inputs": [
        {
          "name": "storeOwnerAddress",
          "type": "address"
        }
      ],
      "name": "deactivateStoreOwner",
      "outputs": [],
      "payable": false,
      "stateMutability": "nonpayable",
      "type": "function"
    },
    {
      "constant": true,
      "inputs": [],
      "name": "getAdministratorsCount",
      "outputs": [
        {
          "name": "number",
          "type": "uint256"
        }
      ],
      "payable": false,
      "stateMutability": "view",
      "type": "function"
    },
    {
      "constant": true,
      "inputs": [
        {
          "name": "index",
          "type": "uint256"
        }
      ],
      "name": "getAdministratorAtIndex",
      "outputs": [
        {
          "name": "",
          "type": "uint256"
        },
        {
          "name": "",
          "type": "address"
        }
      ],
      "payable": false,
      "stateMutability": "view",
      "type": "function"
    },
    {
      "constant": false,
      "inputs": [
        {
          "name": "storeOwnerAddress",
          "type": "address"
        }
      ],
      "name": "deleteStoreOwner",
      "outputs": [],
      "payable": false,
      "stateMutability": "nonpayable",
      "type": "function"
    },
    {
      "constant": false,
      "inputs": [
        {
          "name": "description",
          "type": "string"
        }
      ],
      "name": "addStore",
      "outputs": [
        {
          "name": "storeIndex",
          "type": "uint256"
        }
      ],
      "payable": false,
      "stateMutability": "nonpayable",
      "type": "function"
    },
    {
      "constant": false,
      "inputs": [
        {
          "name": "storeIndex",
          "type": "uint256"
        },
        {
          "name": "description",
          "type": "string"
        },
        {
          "name": "price",
          "type": "uint256"
        },
        {
          "name": "quantity",
          "type": "uint256"
        }
      ],
      "name": "addProduct",
      "outputs": [
        {
          "name": "productIndex",
          "type": "uint256"
        }
      ],
      "payable": false,
      "stateMutability": "nonpayable",
      "type": "function"
    },
    {
      "constant": false,
      "inputs": [
        {
          "name": "storeIndex",
          "type": "uint256"
        },
        {
          "name": "productIndex",
          "type": "uint256"
        },
        {
          "name": "description",
          "type": "string"
        },
        {
          "name": "price",
          "type": "uint256"
        },
        {
          "name": "quantity",
          "type": "uint256"
        }
      ],
      "name": "updateProduct",
      "outputs": [],
      "payable": false,
      "stateMutability": "nonpayable",
      "type": "function"
    },
    {
      "constant": true,
      "inputs": [
        {
          "name": "storeOwnerAddress",
          "type": "address"
        },
        {
          "name": "storeIndex",
          "type": "uint256"
        }
      ],
      "name": "getProductsCount",
      "outputs": [
        {
          "name": "",
          "type": "uint256"
        }
      ],
      "payable": false,
      "stateMutability": "view",
      "type": "function"
    },
    {
      "constant": true,
      "inputs": [
        {
          "name": "storeOwnerAddress",
          "type": "address"
        },
        {
          "name": "storeIndex",
          "type": "uint256"
        },
        {
          "name": "productIndex",
          "type": "uint256"
        }
      ],
      "name": "getProductAt",
      "outputs": [
        {
          "name": "",
          "type": "uint256"
        },
        {
          "name": "",
          "type": "string"
        },
        {
          "name": "",
          "type": "uint256"
        },
        {
          "name": "",
          "type": "uint256"
        },
        {
          "name": "",
          "type": "uint256"
        }
      ],
      "payable": false,
      "stateMutability": "view",
      "type": "function"
    },
    {
      "constant": false,
      "inputs": [
        {
          "name": "storeIndex",
          "type": "uint256"
        },
        {
          "name": "productIndex",
          "type": "uint256"
        }
      ],
      "name": "deleteProduct",
      "outputs": [],
      "payable": false,
      "stateMutability": "nonpayable",
      "type": "function"
    },
    {
      "constant": false,
      "inputs": [
        {
          "name": "name",
          "type": "string"
        }
      ],
      "name": "requestStoreOwner",
      "outputs": [],
      "payable": false,
      "stateMutability": "nonpayable",
      "type": "function"
    },
    {
      "constant": true,
      "inputs": [
        {
          "name": "storeOwnerAddress",
          "type": "address"
        }
      ],
      "name": "getStoreOwnerAtAddress",
      "outputs": [
        {
          "name": "_index",
          "type": "uint256"
        },
        {
          "name": "_name",
          "type": "string"
        },
        {
          "name": "_addr",
          "type": "address"
        },
        {
          "name": "_isActive",
          "type": "bool"
        },
        {
          "name": "_numberStores",
          "type": "uint256"
        }
      ],
      "payable": false,
      "stateMutability": "view",
      "type": "function"
    },
    {
      "constant": true,
      "inputs": [
        {
          "name": "storeOwnerindex",
          "type": "uint256"
        }
      ],
      "name": "getStoreOwnerAtIndex",
      "outputs": [
        {
          "name": "_index",
          "type": "uint256"
        },
        {
          "name": "_name",
          "type": "string"
        },
        {
          "name": "_addr",
          "type": "address"
        },
        {
          "name": "_isActive",
          "type": "bool"
        },
        {
          "name": "_numberStores",
          "type": "uint256"
        }
      ],
      "payable": false,
      "stateMutability": "view",
      "type": "function"
    },
    {
      "constant": true,
      "inputs": [],
      "name": "getStoreOwnersCount",
      "outputs": [
        {
          "name": "count",
          "type": "uint256"
        }
      ],
      "payable": false,
      "stateMutability": "view",
      "type": "function"
    },
    {
      "constant": true,
      "inputs": [
        {
          "name": "storeOwnerAddress",
          "type": "address"
        },
        {
          "name": "index",
          "type": "uint256"
        }
      ],
      "name": "getStoreAtIndex",
      "outputs": [
        {
          "name": "_index",
          "type": "uint256"
        },
        {
          "name": "_description",
          "type": "string"
        },
        {
          "name": "_numberProducts",
          "type": "uint256"
        },
        {
          "name": "_balance",
          "type": "uint256"
        }
      ],
      "payable": false,
      "stateMutability": "view",
      "type": "function"
    },
    {
      "constant": true,
      "inputs": [
        {
          "name": "storeOwnerAddress",
          "type": "address"
        }
      ],
      "name": "getStoresCount",
      "outputs": [
        {
          "name": "number",
          "type": "uint256"
        }
      ],
      "payable": false,
      "stateMutability": "view",
      "type": "function"
    },
    {
      "constant": false,
      "inputs": [
        {
          "name": "name",
          "type": "string"
        }
      ],
      "name": "updateStoreOwner",
      "outputs": [],
      "payable": false,
      "stateMutability": "nonpayable",
      "type": "function"
    },
    {
      "constant": false,
      "inputs": [
        {
          "name": "storeOwnerAddress",
          "type": "address"
        },
        {
          "name": "storeIndex",
          "type": "uint256"
        },
        {
          "name": "productIndex",
          "type": "uint256"
        },
        {
          "name": "quantity",
          "type": "uint256"
        }
      ],
      "name": "buyProduct",
      "outputs": [
        {
          "name": "",
          "type": "uint256"
        }
      ],
      "payable": true,
      "stateMutability": "payable",
      "type": "function"
    },
    {
      "constant": false,
      "inputs": [
        {
          "name": "storeIndex",
          "type": "uint256"
        },
        {
          "name": "amount",
          "type": "uint256"
        }
      ],
      "name": "storeOwnerWithdraw",
      "outputs": [],
      "payable": false,
      "stateMutability": "nonpayable",
      "type": "function"
    }
  ],
  "bytecode": "0x608060405234801561001057600080fd5b5033600081815260208190526040812060018082018054600160a060020a0319908116861790915581548083019092557fb10e2d527612073b26eecdfd717e6a320cf44b4afac2b0732d9fcbe2b7fa0cf6820180549091168517905592909152556122fb806100806000396000f30060806040526004361061011c5763ffffffff7c01000000000000000000000000000000000000000000000000000000006000350416630762e5e7811461012157806339419282146101d2578063426cf2201461020b57806353fbcf321461027657806362ac4db214610338578063662feffc1461036e578063719505bf146103c757806385a6bbe1146103e85780638dad1faf14610463578063905a32a4146104bc5780639d4cca8e146104dd578063a1c48cc4146104f2578063a3c2abcc1461050d578063aafba9ce14610528578063bf04a10d14610545578063c27ed2a21461057e578063c3ce20d0146105e5578063cf5cca431461063e578063dcba65af14610653578063f8a0a75614610674578063faebda0614610695575b600080fd5b34801561012d57600080fd5b50610145600160a060020a03600435166024356106b6565b6040518085815260200180602001848152602001838152602001828103825285818151815260200191508051906020019080838360005b8381101561019457818101518382015260200161017c565b50505050905090810190601f1680156101c15780820380516001836020036101000a031916815260200191505b509550505050505060405180910390f35b3480156101de57600080fd5b506101ea60043561078b565b60408051928352600160a060020a0390911660208301528051918290030190f35b34801561021757600080fd5b50604080516020600460443581810135601f81018490048402850184019095528484526102749482359460248035953695946064949201919081908401838280828437509497505084359550505060209092013591506107d89050565b005b34801561028257600080fd5b5061028e600435610a54565b604051808681526020018060200185600160a060020a0316600160a060020a0316815260200184151515158152602001838152602001828103825286818151815260200191508051906020019080838360005b838110156102f95781810151838201526020016102e1565b50505050905090810190601f1680156103265780820380516001836020036101000a031916815260200191505b50965050505050505060405180910390f35b34801561034457600080fd5b5061035c600160a060020a0360043516602435610a9b565b60408051918252519081900360200190f35b34801561037a57600080fd5b506040805160206004803580820135601f810184900484028501840190955284845261035c943694929360249392840191908190840183828082843750949750610aca9650505050505050565b3480156103d357600080fd5b50610274600160a060020a0360043516610c67565b3480156103f457600080fd5b5061040f600160a060020a0360043516602435604435610e80565b604051808681526020018060200185815260200184815260200183815260200182810382528681815181526020019150805190602001908083836000838110156102f95781810151838201526020016102e1565b34801561046f57600080fd5b506040805160206004803580820135601f8101849004840285018401909552848452610274943694929360249392840191908190840183828082843750949750610fac9650505050505050565b3480156104c857600080fd5b5061035c600160a060020a03600435166110f2565b3480156104e957600080fd5b5061035c611110565b3480156104fe57600080fd5b50610274600435602435611116565b34801561051957600080fd5b506102746004356024356113f9565b61035c600160a060020a036004351660243560443560643561158d565b34801561055157600080fd5b5061055a6116ed565b6040518082600381111561056a57fe5b60ff16815260200191505060405180910390f35b34801561058a57600080fd5b5060408051602060046024803582810135601f810185900485028601850190965285855261035c9583359536956044949193909101919081908401838280828437509497505084359550505060209092013591506117be9050565b3480156105f157600080fd5b506040805160206004803580820135601f8101849004840285018401909552848452610274943694929360249392840191908190840183828082843750949750611a699650505050505050565b34801561064a57600080fd5b5061035c611bc1565b34801561065f57600080fd5b50610274600160a060020a0360043516611bc7565b34801561068057600080fd5b50610274600160a060020a0360043516611e77565b3480156106a157600080fd5b5061028e600160a060020a0360043516612098565b600160a060020a03821660009081526002602081815260408084208585526003908101835281852080549181015460048201546001928301805486519481161561010002600019011697909704601f81018790048702840187019095528483526060968896879691949185918301828280156107735780601f1061074857610100808354040283529160200191610773565b820191906000526020600020905b81548152906001019060200180831161075657829003601f168201915b50505050509250935093509350935092959194509250565b600080600060018481548110151561079f57fe5b600091825260208083209190910154600160a060020a039081168352908290526040909120805460019091015490969116945092505050565b600354600010610820576040805160e560020a62461bcd02815260206004820152600d6024820152600080516020612290833981519152604482015290519081900360640190fd5b3360008181526002602052604090205460038054909190811061083f57fe5b600091825260209091200154600160a060020a031614610897576040805160e560020a62461bcd0281526020600482015260106024820152600080516020612270833981519152604482015290519081900360640190fd5b3360009081526002602052604090206005015460ff1615156001146108f4576040805160e560020a62461bcd02815260206004820152601560248201526000805160206122b0833981519152604482015290519081900360640190fd5b60035460001061093c576040805160e560020a62461bcd02815260206004820152600d6024820152600080516020612290833981519152604482015290519081900360640190fd5b3360008181526002602052604090205460038054909190811061095b57fe5b600091825260209091200154600160a060020a0316146109b3576040805160e560020a62461bcd0281526020600482015260106024820152600080516020612270833981519152604482015290519081900360640190fd5b33600090815260026020818152604080842089855260030182528084208885528301825290922085516109ee9391909201919086019061217e565b50336000908152600260208181526040808420898552600390810183528185208986529093019091528083209182018590556004909101839055517f256915b5e9487a99646dd3f7850cc8a8dfc7ee01c94b55a1bce253226a0d58b09190a15050505050565b600060606000806000610a89600387815481101515610a6f57fe5b600091825260209091200154600160a060020a0316612098565b939a9299509097509550909350915050565b600160a060020a0391909116600090815260026020908152604080832093835260039384019091529020015490565b6003546000908110610b14576040805160e560020a62461bcd02815260206004820152600d6024820152600080516020612290833981519152604482015290519081900360640190fd5b33600081815260026020526040902054600380549091908110610b3357fe5b600091825260209091200154600160a060020a031614610b8b576040805160e560020a62461bcd0281526020600482015260106024820152600080516020612270833981519152604482015290519081900360640190fd5b3360009081526002602052604090206005015460ff161515600114610be8576040805160e560020a62461bcd02815260206004820152601560248201526000805160206122b0833981519152604482015290519081900360640190fd5b5033600090815260026020908152604080832060048101805460018082018355918652848620810181905580865260039092018452919093208381558451610c389391909201919085019061217e565b506040517fd391b07818edb313b0300473510a08eedf84bf6941f128facdd8145ea3c41db790600090a1919050565b6003548190600010610cb1576040805160e560020a62461bcd02815260206004820152600d6024820152600080516020612290833981519152604482015290519081900360640190fd5b600160a060020a038116600081815260026020526040902054600380549091908110610cd957fe5b600091825260209091200154600160a060020a031614610d43576040805160e560020a62461bcd02815260206004820152600e60248201527f4e6f2073746f7265206f776e6572000000000000000000000000000000000000604482015290519081900360640190fd5b600154600010610d9d576040805160e560020a62461bcd02815260206004820152601160248201527f4e6f2061646d696e6973747261746f7273000000000000000000000000000000604482015290519081900360640190fd5b33600081815260208190526040902054600180549091908110610dbc57fe5b600091825260209091200154600160a060020a031614610e26576040805160e560020a62461bcd02815260206004820152601c60248201527f41646d696e206164647265737320646f6573206e6f74206d6174636800000000604482015290519081900360640190fd5b600160a060020a0382166000908152600260209081526040808320600501805460ff191690558051928352517fee5fc6703815cacbb8932fb9b2e11b662a3f10bc42d3c3d0aeb57886405574659281900390910190a15050565b600060606000806000610e916121fc565b600160a060020a03891660009081526002602081815260408084208c855260030182528084208b85528301825292839020835160a0810185528154815260018083015482850152828501805487519281161561010002600019011695909504601f81018590048502820185018752808252919592949286019390929190830182828015610f5f5780601f10610f3457610100808354040283529160200191610f5f565b820191906000526020600020905b815481529060010190602001808311610f4257829003601f168201915b50505091835250506003820154602080830191909152600490920154604091820152825190830151606084015160808501519490930151919d909c50919a50919850909650945050505050565b600354600010610ff4576040805160e560020a62461bcd02815260206004820152600d6024820152600080516020612290833981519152604482015290519081900360640190fd5b3360008181526002602052604090205460038054909190811061101357fe5b600091825260209091200154600160a060020a03161461106b576040805160e560020a62461bcd0281526020600482015260106024820152600080516020612270833981519152604482015290519081900360640190fd5b3360009081526002602052604090206005015460ff1615156001146110c8576040805160e560020a62461bcd02815260206004820152601560248201526000805160206122b0833981519152604482015290519081900360640190fd5b33600090815260026020908152604090912082516110ee9260019092019184019061217e565b5050565b600160a060020a031660009081526002602052604090206004015490565b60035490565b60035460009081908110611162576040805160e560020a62461bcd02815260206004820152600d6024820152600080516020612290833981519152604482015290519081900360640190fd5b3360008181526002602052604090205460038054909190811061118157fe5b600091825260209091200154600160a060020a0316146111d9576040805160e560020a62461bcd0281526020600482015260106024820152600080516020612270833981519152604482015290519081900360640190fd5b3360009081526002602052604090206005015460ff161515600114611236576040805160e560020a62461bcd02815260206004820152601560248201526000805160206122b0833981519152604482015290519081900360640190fd5b60035460001061127e576040805160e560020a62461bcd02815260206004820152600d6024820152600080516020612290833981519152604482015290519081900360640190fd5b3360008181526002602052604090205460038054909190811061129d57fe5b600091825260209091200154600160a060020a0316146112f5576040805160e560020a62461bcd0281526020600482015260106024820152600080516020612270833981519152604482015290519081900360640190fd5b336000908152600260208181526040808420888552600390810180845282862089875294850184529185205494899052915201805491935090600019810190811061133c57fe5b6000918252602080832090910154338352600282526040808420888552600390810190935290922001805491925082918490811061137657fe5b6000918252602080832090910192909255338152600280835260408083208884526003908101808652828520878652938401865291842087905592889052909252018054906113c990600019830161222c565b506040517fbdbe1c221bd19c15a8cebdf01888a5b25cff33af2713c45cd7a0da19e173f68d90600090a150505050565b600354600010611441576040805160e560020a62461bcd02815260206004820152600d6024820152600080516020612290833981519152604482015290519081900360640190fd5b3360008181526002602052604090205460038054909190811061146057fe5b600091825260209091200154600160a060020a0316146114b8576040805160e560020a62461bcd0281526020600482015260106024820152600080516020612270833981519152604482015290519081900360640190fd5b3360009081526002602090815260408083208584526003019091528120600401548290031015611532576040805160e560020a62461bcd02815260206004820152601060248201527f4e6f7420656e6f7567682066756e647300000000000000000000000000000000604482015290519081900360640190fd5b604051339082156108fc029083906000818181858888f1935050505015801561155f573d6000803e3d6000fd5b5033600090815260026020908152604080832094835260039094019052919091206004018054919091039055565b600160a060020a03841660009081526002602081815260408084208785526003018252808420868552909201905281206004810154831115611619576040805160e560020a62461bcd02815260206004820152601260248201527f4e6f7420656e6f7567682070726f647563740000000000000000000000000000604482015290519081900360640190fd5b600381015483023414611676576040805160e560020a62461bcd02815260206004820152601460248201527f4e6f7420656e6f75676874204554482073656e74000000000000000000000000604482015290519081900360640190fd5b600160a060020a038616600090815260026020908152604080832088845260030182529182902060049081018054340190558301805486900390819055825190815291517f6463dcc96bb3450c05fffe1dabaa195cdce5844f4ac004eb456698ab8df2fda19281900390910190a150949350505050565b6001546000908110801561173257503360008181526020819052604090205460018054909190811061171b57fe5b600091825260209091200154600160a060020a0316145b1561173f575060016117bb565b600354600010801561178257503360008181526002602052604090205460038054909190811061176b57fe5b600091825260209091200154600160a060020a0316145b156117b7573360009081526002602052604090206005015460ff161515600114156117af575060036117bb565b5060026117bb565b5060005b90565b6003546000908110611808576040805160e560020a62461bcd02815260206004820152600d6024820152600080516020612290833981519152604482015290519081900360640190fd5b3360008181526002602052604090205460038054909190811061182757fe5b600091825260209091200154600160a060020a03161461187f576040805160e560020a62461bcd0281526020600482015260106024820152600080516020612270833981519152604482015290519081900360640190fd5b3360009081526002602052604090206005015460ff1615156001146118dc576040805160e560020a62461bcd02815260206004820152601560248201526000805160206122b0833981519152604482015290519081900360640190fd5b600354600010611924576040805160e560020a62461bcd02815260206004820152600d6024820152600080516020612290833981519152604482015290519081900360640190fd5b3360008181526002602052604090205460038054909190811061194357fe5b600091825260209091200154600160a060020a03161461199b576040805160e560020a62461bcd0281526020600482015260106024820152600080516020612270833981519152604482015290519081900360640190fd5b5033600090815260026020818152604080842088855260039081018352818520908101805460018101825590865283862081018190558086529084018352932083815586516119f193919091019187019061217e565b503360009081526002602081815260408084208985526003908101835281852086865290930190915280832091820186905560048083018690558054600193840181905592909201909155517fe75e3438f5fd0422baa0271b475e64464fc853f70708ada4cc6196c4f7c528059190a1949350505050565b6003546000108015611aac575033600081815260026020526040902054600380549091908110611a9557fe5b600091825260209091200154600160a060020a0316145b15611b01576040805160e560020a62461bcd02815260206004820152601560248201527f416c726561647920612073746f7265206f776e65720000000000000000000000604482015290519081900360640190fd5b3360009081526002602090815260409091208251611b279260019092019184019061217e565b50336000818152600260208190526040808320918201805473ffffffffffffffffffffffffffffffffffffffff19908116861790915560038054600181019091557fc2575a0e9e593c00f959f8c92f12db2869c3395a3b0502d05e2516446f71f85b81018054909216909517905592905590517f147047acab3e2e70af03d6cc67cf27d0f585600c5044407964b2b769c81d8ffc9190a150565b60015490565b600354600090819083908210611c15576040805160e560020a62461bcd02815260206004820152600d6024820152600080516020612290833981519152604482015290519081900360640190fd5b600160a060020a038116600081815260026020526040902054600380549091908110611c3d57fe5b600091825260209091200154600160a060020a031614611ca7576040805160e560020a62461bcd02815260206004820152600e60248201527f4e6f2073746f7265206f776e6572000000000000000000000000000000000000604482015290519081900360640190fd5b600154600010611d01576040805160e560020a62461bcd02815260206004820152601160248201527f4e6f2061646d696e6973747261746f7273000000000000000000000000000000604482015290519081900360640190fd5b33600081815260208190526040902054600180549091908110611d2057fe5b600091825260209091200154600160a060020a031614611d8a576040805160e560020a62461bcd02815260206004820152601c60248201527f41646d696e206164647265737320646f6573206e6f74206d6174636800000000604482015290519081900360640190fd5b600160a060020a038416600090815260026020526040902060058101805460ff191690555460038054919450906000198101908110611dc557fe5b60009182526020909120015460038054600160a060020a039092169350839185908110611dee57fe5b6000918252602080832091909101805473ffffffffffffffffffffffffffffffffffffffff1916600160a060020a0394851617905591841681526002909152604090208390556003805490611e4790600019830161222c565b506040517fd9a101a09eaa9fe77046ba7369eebc0db07b34a021e99ca83c0eb7e799322fd590600090a150505050565b6003548190600010611ec1576040805160e560020a62461bcd02815260206004820152600d6024820152600080516020612290833981519152604482015290519081900360640190fd5b600160a060020a038116600081815260026020526040902054600380549091908110611ee957fe5b600091825260209091200154600160a060020a031614611f53576040805160e560020a62461bcd02815260206004820152600e60248201527f4e6f2073746f7265206f776e6572000000000000000000000000000000000000604482015290519081900360640190fd5b600154600010611fad576040805160e560020a62461bcd02815260206004820152601160248201527f4e6f2061646d696e6973747261746f7273000000000000000000000000000000604482015290519081900360640190fd5b33600081815260208190526040902054600180549091908110611fcc57fe5b600091825260209091200154600160a060020a031614612036576040805160e560020a62461bcd02815260206004820152601c60248201527f41646d696e206164647265737320646f6573206e6f74206d6174636800000000604482015290519081900360640190fd5b600160a060020a038216600090815260026020908152604091829020600501805460ff19166001908117909155825190815291517fee5fc6703815cacbb8932fb9b2e11b662a3f10bc42d3c3d0aeb57886405574659281900390910190a15050565b600160a060020a038181166000908152600260208181526040808420805481850154600583015460048401546001948501805487516101009782161597909702600019011698909804601f810188900488028601880190965285855297986060988a988998899896979196959093169460ff909416939192909186918301828280156121655780601f1061213a57610100808354040283529160200191612165565b820191906000526020600020905b81548152906001019060200180831161214857829003601f168201915b50989f939e50959c50939a509198509650505050505050565b828054600181600116156101000203166002900490600052602060002090601f016020900481019282601f106121bf57805160ff19168380011785556121ec565b828001600101855582156121ec579182015b828111156121ec5782518255916020019190600101906121d1565b506121f8929150612255565b5090565b60a06040519081016040528060008152602001600081526020016060815260200160008152602001600081525090565b81548183558181111561225057600083815260209020612250918101908301612255565b505050565b6117bb91905b808211156121f8576000815560010161225b56004e6f7420612073746f72654f776e6572000000000000000000000000000000004e6f2073746f72654f776e6572000000000000000000000000000000000000004e6f74206163746976652073746f72654f776e65720000000000000000000000a165627a7a72305820b540d62a41ff7a62781adb889ed74a2d2a11391ee2d75d130308898f172f19b60029",
  "source": "pragma solidity ^0.4.24;\r\n\r\ncontract MarketPlace {\r\n\r\n    enum Roles { Guest, Administrator, StoreOwner, ActiveStoreOwner }\r\n\r\n    //Admin Data\r\n    struct Administrator{\r\n        uint index;\r\n        address addr;\r\n    }\r\n\r\n    mapping (address => Administrator) private administrators;\r\n    address[] private administratorIndexes ; //use to list objects\r\n\r\n    //Store Owner data\r\n    struct StoreOwner{\r\n        uint index;\r\n        string name;\r\n        address addr;\r\n        mapping(uint=>Store) stores;\r\n        uint[] storesIndexes;\r\n        bool isActive;\r\n    }\r\n\r\n    mapping (address => StoreOwner) private storeOwners;\r\n    address[] private storeOwnerIndexes; //use to list objects\r\n\r\n    struct Product {\r\n        uint index;\r\n        uint id; //to identify external database\r\n        string description;\r\n        uint price;\r\n        uint quantity;\r\n    }\r\n\r\n    uint private productId; //to identify a product in an external database\r\n\r\n    struct Store {\r\n        uint index;\r\n        string description;\r\n        mapping(uint=>Product) products;\r\n        uint[] productIndexes;\r\n        uint balance;\r\n    }\r\n\r\n    //Events\r\n    event LogStoreOwnerRequest();\r\n    event LogStoreOwnerStatusChanged(bool status);\r\n    event LogStoreOwnerDelete();\r\n    event LogStoreOwnerAddStore();\r\n    event LogStoreOwnerAddProduct();\r\n    event LogStoreOwnerDeleteProduct();\r\n    event LogStoreOwnerUpdateProduct();\r\n    event LogUserBuyProduct(uint quantityLeft);\r\n\r\n    //Check if a given address is Administrator\r\n    modifier administratorExists(address administratorAddress){\r\n        require(administratorIndexes.length > 0, \"No administrators\");\r\n        require(administratorIndexes[administrators[administratorAddress].index] == administratorAddress, \"Not administrator\");\r\n        _;\r\n    }\r\n\r\n    //Check if current account is Administrator\r\n    modifier isAdministrator(){\r\n        require(administratorIndexes.length > 0, \"No administrators\");\r\n        require(administratorIndexes[administrators[msg.sender].index] == msg.sender, \"Admin address does not match\");\r\n        _;\r\n    }\r\n\r\n    //Check if a given address is StoreOwner\r\n    modifier storeOwnerExists(address storeOwnerAddress){\r\n        require(storeOwnerIndexes.length > 0, \"No storeOwner\");\r\n        require(storeOwnerIndexes[storeOwners[storeOwnerAddress].index] == storeOwnerAddress, \"No store owner\");\r\n        _;\r\n    }\r\n\r\n    //Check if current account is StoreOwner\r\n    modifier isStoreOwner(){\r\n        require(storeOwnerIndexes.length > 0, \"No storeOwner\");\r\n        require(storeOwnerIndexes[storeOwners[msg.sender].index] == msg.sender, \"Not a storeOwner\");\r\n        _;\r\n    }\r\n\r\n    //Check if current account is ActiveStoreOwner\r\n    modifier isActiveStoreOwner(){\r\n        require(storeOwnerIndexes.length > 0, \"No storeOwner\");\r\n        require(storeOwnerIndexes[storeOwners[msg.sender].index] == msg.sender, \"Not a storeOwner\");\r\n        require(storeOwners[msg.sender].isActive == true, \"Not active storeOwner\");\r\n        _;\r\n    }\r\n\r\n    constructor() public {\r\n\r\n        //contract owner is the first administrator\r\n        administrators[msg.sender].addr = msg.sender;\r\n        administrators[msg.sender].index = administratorIndexes.push(msg.sender)-1;        \r\n    }\r\n\r\n    //Check the role of current account\r\n    function getUserRole() public view returns(Roles) {\r\n        \r\n        if(administratorIndexes.length > 0 && administratorIndexes[administrators[msg.sender].index] == msg.sender) {\r\n            return Roles.Administrator;\r\n        }\r\n        else if(storeOwnerIndexes.length > 0 && storeOwnerIndexes[storeOwners[msg.sender].index] == msg.sender) {\r\n            //it's a store owber, check if active\r\n            if(storeOwners[msg.sender].isActive == true){\r\n                return Roles.ActiveStoreOwner;\r\n            }\r\n            else{\r\n                return Roles.StoreOwner;\r\n            }\r\n        }\r\n        else{\r\n            return Roles.Guest;\r\n        }\r\n    }\r\n\r\n    //ADMINISTRATORS\r\n    function activateStoreOwner(address storeOwnerAddress) public storeOwnerExists(storeOwnerAddress) isAdministrator {\r\n\r\n        storeOwners[storeOwnerAddress].isActive = true;\r\n        emit LogStoreOwnerStatusChanged(true);\r\n    }\r\n\r\n    function deactivateStoreOwner(address storeOwnerAddress) public storeOwnerExists(storeOwnerAddress) isAdministrator {\r\n\r\n        storeOwners[storeOwnerAddress].isActive = false;\r\n        emit LogStoreOwnerStatusChanged(false);\r\n    }    \r\n\r\n    function getAdministratorsCount() public view returns(uint number){\r\n        number = administratorIndexes.length;\r\n    }\r\n\r\n    function getAdministratorAtIndex(uint index) public view returns(uint, address){\r\n        address adminAddress = administratorIndexes[index];\r\n        return (administrators[adminAddress].index, administrators[adminAddress].addr);\r\n    }\r\n\r\n    //delete a store owner (whether active or not)\r\n    function deleteStoreOwner(address storeOwnerAddress) public storeOwnerExists(storeOwnerAddress) isAdministrator {\r\n\r\n        //since we cannot delete a mapping, set to false\r\n        storeOwners[storeOwnerAddress].isActive = false;\r\n\r\n        uint rowToDelete = storeOwners[storeOwnerAddress].index;\r\n        address keyToMove = storeOwnerIndexes[storeOwnerIndexes.length-1];\r\n        storeOwnerIndexes[rowToDelete] = keyToMove;\r\n        storeOwners[keyToMove].index = rowToDelete;\r\n        storeOwnerIndexes.length--;\r\n\r\n        emit LogStoreOwnerDelete();\r\n    }\r\n\r\n    function addStore(string description) public isActiveStoreOwner returns (uint storeIndex){\r\n\r\n        storeIndex = storeOwners[msg.sender].storesIndexes.length;\r\n        storeOwners[msg.sender].storesIndexes.push(storeIndex);\r\n\r\n        storeOwners[msg.sender].stores[storeIndex].index = storeIndex;\r\n        storeOwners[msg.sender].stores[storeIndex].description = description;\r\n\r\n        emit LogStoreOwnerAddStore();\r\n    }\r\n\r\n    //Only store owner can add prodcut\r\n    function addProduct(uint storeIndex, string description, uint price, uint quantity) public \r\n    isActiveStoreOwner isStoreOwner returns (uint productIndex) {\r\n\r\n        productIndex = storeOwners[msg.sender].stores[storeIndex].productIndexes.length;\r\n        storeOwners[msg.sender].stores[storeIndex].productIndexes.push(productIndex);\r\n    \r\n        storeOwners[msg.sender].stores[storeIndex].products[productIndex].index = productIndex;\r\n        storeOwners[msg.sender].stores[storeIndex].products[productIndex].description = description;\r\n        storeOwners[msg.sender].stores[storeIndex].products[productIndex].price = price;\r\n        storeOwners[msg.sender].stores[storeIndex].products[productIndex].quantity = quantity;\r\n        storeOwners[msg.sender].stores[storeIndex].products[productIndex].id = productId;\r\n\r\n        productId = productId + 1; //unique identifier for Database\r\n\r\n        emit LogStoreOwnerAddProduct();\r\n    }\r\n\r\n    function updateProduct(uint storeIndex, uint productIndex, string description, uint price, uint quantity) public \r\n    isActiveStoreOwner isStoreOwner {\r\n\r\n        storeOwners[msg.sender].stores[storeIndex].products[productIndex].description = description;\r\n        storeOwners[msg.sender].stores[storeIndex].products[productIndex].price = price;\r\n        storeOwners[msg.sender].stores[storeIndex].products[productIndex].quantity = quantity;\r\n\r\n        emit LogStoreOwnerUpdateProduct();\r\n    }    \r\n\r\n    function getProductsCount(address storeOwnerAddress, uint storeIndex) public view returns(uint){\r\n\r\n        return storeOwners[storeOwnerAddress].stores[storeIndex].productIndexes.length;\r\n    }\r\n\r\n    function getProductAt(address storeOwnerAddress, uint storeIndex, uint productIndex) public view returns(uint, string, uint, uint, uint){\r\n\r\n        Product memory product = storeOwners[storeOwnerAddress].stores[storeIndex].products[productIndex];\r\n\r\n        return (product.index, product.description, product.price, product.quantity, product.id);\r\n    }\r\n\r\n    //Only store owner can delete prodcut\r\n    function deleteProduct(uint storeIndex, uint productIndex) public isActiveStoreOwner isStoreOwner {\r\n\r\n        uint rowToDelete = storeOwners[msg.sender].stores[storeIndex].products[productIndex].index;\r\n        uint keyToMove = storeOwners[msg.sender].stores[storeIndex].productIndexes[storeOwners[msg.sender].stores[storeIndex].productIndexes.length-1];\r\n        storeOwners[msg.sender].stores[storeIndex].productIndexes[rowToDelete] = keyToMove;\r\n        storeOwners[msg.sender].stores[storeIndex].products[keyToMove].index = rowToDelete;\r\n        storeOwners[msg.sender].stores[storeIndex].productIndexes.length--;\r\n\r\n        emit LogStoreOwnerDeleteProduct();\r\n    }\r\n\r\n    //GUEST\r\n    function requestStoreOwner(string name) public {\r\n        //if already exists throw\r\n        if(storeOwnerIndexes.length > 0 && storeOwnerIndexes[storeOwners[msg.sender].index] == msg.sender){\r\n            revert(\"Already a store owner\");\r\n        }\r\n\r\n        storeOwners[msg.sender].name = name;\r\n        storeOwners[msg.sender].addr = msg.sender;\r\n        storeOwners[msg.sender].index = storeOwnerIndexes.push(msg.sender) - 1;\r\n\r\n        emit LogStoreOwnerRequest();\r\n    }\r\n\r\n    function getStoreOwnerAtAddress(address storeOwnerAddress) public view\r\n     returns(uint _index, string _name, address _addr, bool _isActive, uint _numberStores){\r\n\r\n        return (storeOwners[storeOwnerAddress].index,\r\n        storeOwners[storeOwnerAddress].name,\r\n        storeOwners[storeOwnerAddress].addr,\r\n        storeOwners[storeOwnerAddress].isActive,\r\n        storeOwners[storeOwnerAddress].storesIndexes.length);\r\n    }    \r\n\r\n    function getStoreOwnerAtIndex(uint storeOwnerindex) public view\r\n        returns(uint _index, string _name, address _addr, bool _isActive, uint _numberStores){\r\n        \r\n        //StoreOwner memory storeOwner = storeOwners[storeOwnerIndexes[storeOwnerindex]];\r\n        //return(storeOwner.index, storeOwner.name, storeOwner.addr, storeOwner.isActive, storeOwner.storesIndexes.length);\r\n        return getStoreOwnerAtAddress(storeOwnerIndexes[storeOwnerindex]);\r\n    }\r\n\r\n    function getStoreOwnersCount() public view returns(uint count){\r\n\r\n        count = storeOwnerIndexes.length;\r\n    }\r\n\r\n    function getStoreAtIndex(address storeOwnerAddress, uint index) public view \r\n      returns(uint _index, string _description, uint _numberProducts, uint _balance){\r\n          \r\n        return(storeOwners[storeOwnerAddress].stores[index].index,\r\n               storeOwners[storeOwnerAddress].stores[index].description,\r\n               storeOwners[storeOwnerAddress].stores[index].productIndexes.length,\r\n               storeOwners[storeOwnerAddress].stores[index].balance\r\n        );\r\n    }\r\n\r\n    function getStoresCount(address storeOwnerAddress) public view returns(uint number){\r\n        number = storeOwners[storeOwnerAddress].storesIndexes.length;\r\n    }\r\n \r\n    //Only the store owner can update its data\r\n    function updateStoreOwner(string name) public isActiveStoreOwner {\r\n\r\n        storeOwners[msg.sender].name = name;\r\n    }\r\n\r\n    function buyProduct(address storeOwnerAddress, uint storeIndex, uint productIndex, uint quantity) public payable returns(uint) {\r\n\r\n        Product storage product = storeOwners[storeOwnerAddress].stores[storeIndex].products[productIndex];\r\n\r\n        require(quantity <= product.quantity, \"Not enough product\");\r\n        //check sent eth is what is expected\r\n        require(msg.value == quantity * product.price, \"Not enought ETH sent\");\r\n        storeOwners[storeOwnerAddress].stores[storeIndex].balance += msg.value; \r\n        product.quantity -= quantity;\r\n\r\n        emit LogUserBuyProduct(product.quantity);\r\n    } \r\n\r\n    function storeOwnerWithdraw(uint storeIndex, uint amount) public isStoreOwner {\r\n        \r\n        //Use of  withdrawal pattern\r\n        require(storeOwners[msg.sender].stores[storeIndex].balance - amount >= 0, \"Not enough funds\");\r\n        msg.sender.transfer(amount);\r\n        storeOwners[msg.sender].stores[storeIndex].balance -= amount;\r\n    }\r\n\r\n}\r\n",
  "sourcePath": "C:\\Users\\rtheu\\Dropbox\\dapps\\market-place\\contracts\\MarketPlace.sol",
  "compiler": {
    "name": "solc",
    "version": "0.4.24+commit.e67f0147.Emscripten.clang"
  },
  "schemaVersion": "2.0.1",
  "updatedAt": "2018-08-16T13:36:44.152Z"
}