{
  "contractName": "MarketPlace",
  "abi": [
    {
      "inputs": [],
      "payable": false,
      "stateMutability": "nonpayable",
      "type": "constructor"
    },
    {
      "anonymous": false,
      "inputs": [],
      "name": "LogStoreOwnerRequest",
      "type": "event"
    },
    {
      "anonymous": false,
      "inputs": [
        {
          "indexed": false,
          "name": "status",
          "type": "bool"
        }
      ],
      "name": "LogStoreOwnerStatusChanged",
      "type": "event"
    },
    {
      "anonymous": false,
      "inputs": [],
      "name": "LogStoreOwnerDelete",
      "type": "event"
    },
    {
      "anonymous": false,
      "inputs": [],
      "name": "LogStoreOwnerAddStore",
      "type": "event"
    },
    {
      "anonymous": false,
      "inputs": [],
      "name": "LogStoreOwnerAddProduct",
      "type": "event"
    },
    {
      "anonymous": false,
      "inputs": [],
      "name": "LogStoreOwnerDeleteProduct",
      "type": "event"
    },
    {
      "anonymous": false,
      "inputs": [],
      "name": "LogStoreOwnerUpdateProduct",
      "type": "event"
    },
    {
      "anonymous": false,
      "inputs": [
        {
          "indexed": false,
          "name": "quantityLeft",
          "type": "uint256"
        }
      ],
      "name": "LogUserBuyProduct",
      "type": "event"
    },
    {
      "anonymous": false,
      "inputs": [
        {
          "indexed": false,
          "name": "balanceLeft",
          "type": "uint256"
        }
      ],
      "name": "LogStoreOwnerWithdraw",
      "type": "event"
    },
    {
      "constant": true,
      "inputs": [],
      "name": "getUserRole",
      "outputs": [
        {
          "name": "",
          "type": "uint8"
        }
      ],
      "payable": false,
      "stateMutability": "view",
      "type": "function"
    },
    {
      "constant": false,
      "inputs": [
        {
          "name": "storeOwnerAddress",
          "type": "address"
        }
      ],
      "name": "activateStoreOwner",
      "outputs": [],
      "payable": false,
      "stateMutability": "nonpayable",
      "type": "function"
    },
    {
      "constant": false,
      "inputs": [
        {
          "name": "storeOwnerAddress",
          "type": "address"
        }
      ],
      "name": "deactivateStoreOwner",
      "outputs": [],
      "payable": false,
      "stateMutability": "nonpayable",
      "type": "function"
    },
    {
      "constant": true,
      "inputs": [],
      "name": "getAdministratorsCount",
      "outputs": [
        {
          "name": "number",
          "type": "uint256"
        }
      ],
      "payable": false,
      "stateMutability": "view",
      "type": "function"
    },
    {
      "constant": true,
      "inputs": [
        {
          "name": "index",
          "type": "uint256"
        }
      ],
      "name": "getAdministratorAtIndex",
      "outputs": [
        {
          "name": "",
          "type": "uint256"
        },
        {
          "name": "",
          "type": "address"
        }
      ],
      "payable": false,
      "stateMutability": "view",
      "type": "function"
    },
    {
      "constant": false,
      "inputs": [
        {
          "name": "storeOwnerAddress",
          "type": "address"
        }
      ],
      "name": "deleteStoreOwner",
      "outputs": [],
      "payable": false,
      "stateMutability": "nonpayable",
      "type": "function"
    },
    {
      "constant": false,
      "inputs": [
        {
          "name": "description",
          "type": "string"
        }
      ],
      "name": "addStore",
      "outputs": [
        {
          "name": "storeIndex",
          "type": "uint256"
        }
      ],
      "payable": false,
      "stateMutability": "nonpayable",
      "type": "function"
    },
    {
      "constant": false,
      "inputs": [
        {
          "name": "storeIndex",
          "type": "uint256"
        },
        {
          "name": "description",
          "type": "string"
        },
        {
          "name": "price",
          "type": "uint256"
        },
        {
          "name": "quantity",
          "type": "uint256"
        }
      ],
      "name": "addProduct",
      "outputs": [
        {
          "name": "productIndex",
          "type": "uint256"
        }
      ],
      "payable": false,
      "stateMutability": "nonpayable",
      "type": "function"
    },
    {
      "constant": false,
      "inputs": [
        {
          "name": "storeIndex",
          "type": "uint256"
        },
        {
          "name": "productIndex",
          "type": "uint256"
        },
        {
          "name": "description",
          "type": "string"
        },
        {
          "name": "price",
          "type": "uint256"
        },
        {
          "name": "quantity",
          "type": "uint256"
        }
      ],
      "name": "updateProduct",
      "outputs": [],
      "payable": false,
      "stateMutability": "nonpayable",
      "type": "function"
    },
    {
      "constant": true,
      "inputs": [
        {
          "name": "storeOwnerAddress",
          "type": "address"
        },
        {
          "name": "storeIndex",
          "type": "uint256"
        }
      ],
      "name": "getProductsCount",
      "outputs": [
        {
          "name": "",
          "type": "uint256"
        }
      ],
      "payable": false,
      "stateMutability": "view",
      "type": "function"
    },
    {
      "constant": true,
      "inputs": [
        {
          "name": "storeOwnerAddress",
          "type": "address"
        },
        {
          "name": "storeIndex",
          "type": "uint256"
        },
        {
          "name": "productIndex",
          "type": "uint256"
        }
      ],
      "name": "getProductAt",
      "outputs": [
        {
          "name": "",
          "type": "uint256"
        },
        {
          "name": "",
          "type": "string"
        },
        {
          "name": "",
          "type": "uint256"
        },
        {
          "name": "",
          "type": "uint256"
        },
        {
          "name": "",
          "type": "uint256"
        }
      ],
      "payable": false,
      "stateMutability": "view",
      "type": "function"
    },
    {
      "constant": false,
      "inputs": [
        {
          "name": "storeIndex",
          "type": "uint256"
        },
        {
          "name": "productIndex",
          "type": "uint256"
        }
      ],
      "name": "deleteProduct",
      "outputs": [],
      "payable": false,
      "stateMutability": "nonpayable",
      "type": "function"
    },
    {
      "constant": false,
      "inputs": [
        {
          "name": "name",
          "type": "string"
        }
      ],
      "name": "requestStoreOwner",
      "outputs": [],
      "payable": false,
      "stateMutability": "nonpayable",
      "type": "function"
    },
    {
      "constant": true,
      "inputs": [
        {
          "name": "storeOwnerAddress",
          "type": "address"
        }
      ],
      "name": "getStoreOwnerAtAddress",
      "outputs": [
        {
          "name": "_index",
          "type": "uint256"
        },
        {
          "name": "_name",
          "type": "string"
        },
        {
          "name": "_addr",
          "type": "address"
        },
        {
          "name": "_isActive",
          "type": "bool"
        },
        {
          "name": "_numberStores",
          "type": "uint256"
        }
      ],
      "payable": false,
      "stateMutability": "view",
      "type": "function"
    },
    {
      "constant": true,
      "inputs": [
        {
          "name": "storeOwnerindex",
          "type": "uint256"
        }
      ],
      "name": "getStoreOwnerAtIndex",
      "outputs": [
        {
          "name": "_index",
          "type": "uint256"
        },
        {
          "name": "_name",
          "type": "string"
        },
        {
          "name": "_addr",
          "type": "address"
        },
        {
          "name": "_isActive",
          "type": "bool"
        },
        {
          "name": "_numberStores",
          "type": "uint256"
        }
      ],
      "payable": false,
      "stateMutability": "view",
      "type": "function"
    },
    {
      "constant": true,
      "inputs": [],
      "name": "getStoreOwnersCount",
      "outputs": [
        {
          "name": "count",
          "type": "uint256"
        }
      ],
      "payable": false,
      "stateMutability": "view",
      "type": "function"
    },
    {
      "constant": true,
      "inputs": [
        {
          "name": "storeOwnerAddress",
          "type": "address"
        },
        {
          "name": "index",
          "type": "uint256"
        }
      ],
      "name": "getStoreAtIndex",
      "outputs": [
        {
          "name": "_index",
          "type": "uint256"
        },
        {
          "name": "_description",
          "type": "string"
        },
        {
          "name": "_numberProducts",
          "type": "uint256"
        },
        {
          "name": "_balance",
          "type": "uint256"
        },
        {
          "name": "_storeOwner",
          "type": "address"
        }
      ],
      "payable": false,
      "stateMutability": "view",
      "type": "function"
    },
    {
      "constant": true,
      "inputs": [
        {
          "name": "storeOwnerAddress",
          "type": "address"
        }
      ],
      "name": "getStoresCount",
      "outputs": [
        {
          "name": "number",
          "type": "uint256"
        }
      ],
      "payable": false,
      "stateMutability": "view",
      "type": "function"
    },
    {
      "constant": false,
      "inputs": [
        {
          "name": "name",
          "type": "string"
        }
      ],
      "name": "updateStoreOwner",
      "outputs": [],
      "payable": false,
      "stateMutability": "nonpayable",
      "type": "function"
    },
    {
      "constant": false,
      "inputs": [
        {
          "name": "storeOwnerAddress",
          "type": "address"
        },
        {
          "name": "storeIndex",
          "type": "uint256"
        },
        {
          "name": "productIndex",
          "type": "uint256"
        },
        {
          "name": "quantity",
          "type": "uint256"
        }
      ],
      "name": "buyProduct",
      "outputs": [
        {
          "name": "",
          "type": "uint256"
        }
      ],
      "payable": true,
      "stateMutability": "payable",
      "type": "function"
    },
    {
      "constant": false,
      "inputs": [
        {
          "name": "storeIndex",
          "type": "uint256"
        },
        {
          "name": "amount",
          "type": "uint256"
        }
      ],
      "name": "storeOwnerWithdraw",
      "outputs": [],
      "payable": false,
      "stateMutability": "nonpayable",
      "type": "function"
    }
  ],
  "bytecode": "0x608060405234801561001057600080fd5b5033600081815260208190526040812060018082018054600160a060020a0319908116861790915581548083019092557fb10e2d527612073b26eecdfd717e6a320cf44b4afac2b0732d9fcbe2b7fa0cf68201805490911685179055929091525561230f806100806000396000f30060806040526004361061011c5763ffffffff7c01000000000000000000000000000000000000000000000000000000006000350416630762e5e7811461012157806339419282146101eb578063426cf2201461022457806353fbcf321461028f57806362ac4db214610311578063662feffc14610347578063719505bf146103a057806385a6bbe1146103c15780638dad1faf1461043c578063905a32a4146104955780639d4cca8e146104b6578063a1c48cc4146104cb578063a3c2abcc146104e6578063aafba9ce14610501578063bf04a10d1461051e578063c27ed2a214610557578063c3ce20d0146105be578063cf5cca4314610617578063dcba65af1461062c578063f8a0a7561461064d578063faebda061461066e575b600080fd5b34801561012d57600080fd5b50610145600160a060020a036004351660243561068f565b604051808681526020018060200185815260200184815260200183600160a060020a0316600160a060020a03168152602001828103825286818151815260200191508051906020019080838360005b838110156101ac578181015183820152602001610194565b50505050905090810190601f1680156101d95780820380516001836020036101000a031916815260200191505b50965050505050505060405180910390f35b3480156101f757600080fd5b5061020360043561076f565b60408051928352600160a060020a0390911660208301528051918290030190f35b34801561023057600080fd5b50604080516020600460443581810135601f810184900484028501840190955284845261028d9482359460248035953695946064949201919081908401838280828437509497505084359550505060209092013591506107bc9050565b005b34801561029b57600080fd5b506102a7600435610a38565b604051808681526020018060200185600160a060020a0316600160a060020a031681526020018415151515815260200183815260200182810382528681815181526020019150805190602001908083836000838110156101ac578181015183820152602001610194565b34801561031d57600080fd5b50610335600160a060020a0360043516602435610a7f565b60408051918252519081900360200190f35b34801561035357600080fd5b506040805160206004803580820135601f8101849004840285018401909552848452610335943694929360249392840191908190840183828082843750949750610aae9650505050505050565b3480156103ac57600080fd5b5061028d600160a060020a0360043516610c4b565b3480156103cd57600080fd5b506103e8600160a060020a0360043516602435604435610e64565b604051808681526020018060200185815260200184815260200183815260200182810382528681815181526020019150805190602001908083836000838110156101ac578181015183820152602001610194565b34801561044857600080fd5b506040805160206004803580820135601f810184900484028501840190955284845261028d943694929360249392840191908190840183828082843750949750610f909650505050505050565b3480156104a157600080fd5b50610335600160a060020a03600435166110d6565b3480156104c257600080fd5b506103356110f4565b3480156104d757600080fd5b5061028d6004356024356110fa565b3480156104f257600080fd5b5061028d6004356024356113dd565b610335600160a060020a03600435166024356044356064356115a1565b34801561052a57600080fd5b50610533611701565b6040518082600381111561054357fe5b60ff16815260200191505060405180910390f35b34801561056357600080fd5b5060408051602060046024803582810135601f81018590048502860185019096528585526103359583359536956044949193909101919081908401838280828437509497505084359550505060209092013591506117d29050565b3480156105ca57600080fd5b506040805160206004803580820135601f810184900484028501840190955284845261028d943694929360249392840191908190840183828082843750949750611a7d9650505050505050565b34801561062357600080fd5b50610335611bd5565b34801561063857600080fd5b5061028d600160a060020a0360043516611bdb565b34801561065957600080fd5b5061028d600160a060020a0360043516611e8b565b34801561067a57600080fd5b506102a7600160a060020a03600435166120ac565b600160a060020a03821660009081526002602081815260408084208585526003908101835281852080549181015460048201546001928301805486519481161561010002600019011697909704601f810187900487028401870190955284835260609688968796879695929493928d92909186918301828280156107545780601f1061072957610100808354040283529160200191610754565b820191906000526020600020905b81548152906001019060200180831161073757829003601f168201915b50505050509350945094509450945094509295509295909350565b600080600060018481548110151561078357fe5b600091825260208083209190910154600160a060020a039081168352908290526040909120805460019091015490969116945092505050565b600354600010610804576040805160e560020a62461bcd02815260206004820152600d60248201526000805160206122a4833981519152604482015290519081900360640190fd5b3360008181526002602052604090205460038054909190811061082357fe5b600091825260209091200154600160a060020a03161461087b576040805160e560020a62461bcd0281526020600482015260106024820152600080516020612284833981519152604482015290519081900360640190fd5b3360009081526002602052604090206005015460ff1615156001146108d8576040805160e560020a62461bcd02815260206004820152601560248201526000805160206122c4833981519152604482015290519081900360640190fd5b600354600010610920576040805160e560020a62461bcd02815260206004820152600d60248201526000805160206122a4833981519152604482015290519081900360640190fd5b3360008181526002602052604090205460038054909190811061093f57fe5b600091825260209091200154600160a060020a031614610997576040805160e560020a62461bcd0281526020600482015260106024820152600080516020612284833981519152604482015290519081900360640190fd5b33600090815260026020818152604080842089855260030182528084208885528301825290922085516109d293919092019190860190612192565b50336000908152600260208181526040808420898552600390810183528185208986529093019091528083209182018590556004909101839055517f256915b5e9487a99646dd3f7850cc8a8dfc7ee01c94b55a1bce253226a0d58b09190a15050505050565b600060606000806000610a6d600387815481101515610a5357fe5b600091825260209091200154600160a060020a03166120ac565b939a9299509097509550909350915050565b600160a060020a0391909116600090815260026020908152604080832093835260039384019091529020015490565b6003546000908110610af8576040805160e560020a62461bcd02815260206004820152600d60248201526000805160206122a4833981519152604482015290519081900360640190fd5b33600081815260026020526040902054600380549091908110610b1757fe5b600091825260209091200154600160a060020a031614610b6f576040805160e560020a62461bcd0281526020600482015260106024820152600080516020612284833981519152604482015290519081900360640190fd5b3360009081526002602052604090206005015460ff161515600114610bcc576040805160e560020a62461bcd02815260206004820152601560248201526000805160206122c4833981519152604482015290519081900360640190fd5b5033600090815260026020908152604080832060048101805460018082018355918652848620810181905580865260039092018452919093208381558451610c1c93919092019190850190612192565b506040517fd391b07818edb313b0300473510a08eedf84bf6941f128facdd8145ea3c41db790600090a1919050565b6003548190600010610c95576040805160e560020a62461bcd02815260206004820152600d60248201526000805160206122a4833981519152604482015290519081900360640190fd5b600160a060020a038116600081815260026020526040902054600380549091908110610cbd57fe5b600091825260209091200154600160a060020a031614610d27576040805160e560020a62461bcd02815260206004820152600e60248201527f4e6f2073746f7265206f776e6572000000000000000000000000000000000000604482015290519081900360640190fd5b600154600010610d81576040805160e560020a62461bcd02815260206004820152601160248201527f4e6f2061646d696e6973747261746f7273000000000000000000000000000000604482015290519081900360640190fd5b33600081815260208190526040902054600180549091908110610da057fe5b600091825260209091200154600160a060020a031614610e0a576040805160e560020a62461bcd02815260206004820152601c60248201527f41646d696e206164647265737320646f6573206e6f74206d6174636800000000604482015290519081900360640190fd5b600160a060020a0382166000908152600260209081526040808320600501805460ff191690558051928352517fee5fc6703815cacbb8932fb9b2e11b662a3f10bc42d3c3d0aeb57886405574659281900390910190a15050565b600060606000806000610e75612210565b600160a060020a03891660009081526002602081815260408084208c855260030182528084208b85528301825292839020835160a0810185528154815260018083015482850152828501805487519281161561010002600019011695909504601f81018590048502820185018752808252919592949286019390929190830182828015610f435780601f10610f1857610100808354040283529160200191610f43565b820191906000526020600020905b815481529060010190602001808311610f2657829003601f168201915b50505091835250506003820154602080830191909152600490920154604091820152825190830151606084015160808501519490930151919d909c50919a50919850909650945050505050565b600354600010610fd8576040805160e560020a62461bcd02815260206004820152600d60248201526000805160206122a4833981519152604482015290519081900360640190fd5b33600081815260026020526040902054600380549091908110610ff757fe5b600091825260209091200154600160a060020a03161461104f576040805160e560020a62461bcd0281526020600482015260106024820152600080516020612284833981519152604482015290519081900360640190fd5b3360009081526002602052604090206005015460ff1615156001146110ac576040805160e560020a62461bcd02815260206004820152601560248201526000805160206122c4833981519152604482015290519081900360640190fd5b33600090815260026020908152604090912082516110d292600190920191840190612192565b5050565b600160a060020a031660009081526002602052604090206004015490565b60035490565b60035460009081908110611146576040805160e560020a62461bcd02815260206004820152600d60248201526000805160206122a4833981519152604482015290519081900360640190fd5b3360008181526002602052604090205460038054909190811061116557fe5b600091825260209091200154600160a060020a0316146111bd576040805160e560020a62461bcd0281526020600482015260106024820152600080516020612284833981519152604482015290519081900360640190fd5b3360009081526002602052604090206005015460ff16151560011461121a576040805160e560020a62461bcd02815260206004820152601560248201526000805160206122c4833981519152604482015290519081900360640190fd5b600354600010611262576040805160e560020a62461bcd02815260206004820152600d60248201526000805160206122a4833981519152604482015290519081900360640190fd5b3360008181526002602052604090205460038054909190811061128157fe5b600091825260209091200154600160a060020a0316146112d9576040805160e560020a62461bcd0281526020600482015260106024820152600080516020612284833981519152604482015290519081900360640190fd5b336000908152600260208181526040808420888552600390810180845282862089875294850184529185205494899052915201805491935090600019810190811061132057fe5b6000918252602080832090910154338352600282526040808420888552600390810190935290922001805491925082918490811061135a57fe5b6000918252602080832090910192909255338152600280835260408083208884526003908101808652828520878652938401865291842087905592889052909252018054906113ad906000198301612240565b506040517fbdbe1c221bd19c15a8cebdf01888a5b25cff33af2713c45cd7a0da19e173f68d90600090a150505050565b600354600010611425576040805160e560020a62461bcd02815260206004820152600d60248201526000805160206122a4833981519152604482015290519081900360640190fd5b3360008181526002602052604090205460038054909190811061144457fe5b600091825260209091200154600160a060020a03161461149c576040805160e560020a62461bcd0281526020600482015260106024820152600080516020612284833981519152604482015290519081900360640190fd5b336000908152600260209081526040808320858452600301909152902060040154811115611514576040805160e560020a62461bcd02815260206004820152601060248201527f4e6f7420656e6f7567682066756e647300000000000000000000000000000000604482015290519081900360640190fd5b604051339082156108fc029083906000818181858888f19350505050158015611541573d6000803e3d6000fd5b50336000908152600260209081526040808320858452600301825291829020600401805484900390819055825190815291517f6f692b5cf809f5843449069e661205cc1f9f12b19fd86bcda04eef19d0ffbbff9281900390910190a15050565b600160a060020a0384166000908152600260208181526040808420878552600301825280842086855290920190528120600481015483111561162d576040805160e560020a62461bcd02815260206004820152601260248201527f4e6f7420656e6f7567682070726f647563740000000000000000000000000000604482015290519081900360640190fd5b60038101548302341461168a576040805160e560020a62461bcd02815260206004820152601460248201527f4e6f7420656e6f75676874204554482073656e74000000000000000000000000604482015290519081900360640190fd5b600160a060020a038616600090815260026020908152604080832088845260030182529182902060049081018054340190558301805486900390819055825190815291517f6463dcc96bb3450c05fffe1dabaa195cdce5844f4ac004eb456698ab8df2fda19281900390910190a150949350505050565b6001546000908110801561174657503360008181526020819052604090205460018054909190811061172f57fe5b600091825260209091200154600160a060020a0316145b15611753575060016117cf565b600354600010801561179657503360008181526002602052604090205460038054909190811061177f57fe5b600091825260209091200154600160a060020a0316145b156117cb573360009081526002602052604090206005015460ff161515600114156117c3575060036117cf565b5060026117cf565b5060005b90565b600354600090811061181c576040805160e560020a62461bcd02815260206004820152600d60248201526000805160206122a4833981519152604482015290519081900360640190fd5b3360008181526002602052604090205460038054909190811061183b57fe5b600091825260209091200154600160a060020a031614611893576040805160e560020a62461bcd0281526020600482015260106024820152600080516020612284833981519152604482015290519081900360640190fd5b3360009081526002602052604090206005015460ff1615156001146118f0576040805160e560020a62461bcd02815260206004820152601560248201526000805160206122c4833981519152604482015290519081900360640190fd5b600354600010611938576040805160e560020a62461bcd02815260206004820152600d60248201526000805160206122a4833981519152604482015290519081900360640190fd5b3360008181526002602052604090205460038054909190811061195757fe5b600091825260209091200154600160a060020a0316146119af576040805160e560020a62461bcd0281526020600482015260106024820152600080516020612284833981519152604482015290519081900360640190fd5b503360009081526002602081815260408084208885526003908101835281852090810180546001810182559086528386208101819055808652908401835293208381558651611a05939190910191870190612192565b503360009081526002602081815260408084208985526003908101835281852086865290930190915280832091820186905560048083018690558054600193840181905592909201909155517fe75e3438f5fd0422baa0271b475e64464fc853f70708ada4cc6196c4f7c528059190a1949350505050565b6003546000108015611ac0575033600081815260026020526040902054600380549091908110611aa957fe5b600091825260209091200154600160a060020a0316145b15611b15576040805160e560020a62461bcd02815260206004820152601560248201527f416c726561647920612073746f7265206f776e65720000000000000000000000604482015290519081900360640190fd5b3360009081526002602090815260409091208251611b3b92600190920191840190612192565b50336000818152600260208190526040808320918201805473ffffffffffffffffffffffffffffffffffffffff19908116861790915560038054600181019091557fc2575a0e9e593c00f959f8c92f12db2869c3395a3b0502d05e2516446f71f85b81018054909216909517905592905590517f147047acab3e2e70af03d6cc67cf27d0f585600c5044407964b2b769c81d8ffc9190a150565b60015490565b600354600090819083908210611c29576040805160e560020a62461bcd02815260206004820152600d60248201526000805160206122a4833981519152604482015290519081900360640190fd5b600160a060020a038116600081815260026020526040902054600380549091908110611c5157fe5b600091825260209091200154600160a060020a031614611cbb576040805160e560020a62461bcd02815260206004820152600e60248201527f4e6f2073746f7265206f776e6572000000000000000000000000000000000000604482015290519081900360640190fd5b600154600010611d15576040805160e560020a62461bcd02815260206004820152601160248201527f4e6f2061646d696e6973747261746f7273000000000000000000000000000000604482015290519081900360640190fd5b33600081815260208190526040902054600180549091908110611d3457fe5b600091825260209091200154600160a060020a031614611d9e576040805160e560020a62461bcd02815260206004820152601c60248201527f41646d696e206164647265737320646f6573206e6f74206d6174636800000000604482015290519081900360640190fd5b600160a060020a038416600090815260026020526040902060058101805460ff191690555460038054919450906000198101908110611dd957fe5b60009182526020909120015460038054600160a060020a039092169350839185908110611e0257fe5b6000918252602080832091909101805473ffffffffffffffffffffffffffffffffffffffff1916600160a060020a0394851617905591841681526002909152604090208390556003805490611e5b906000198301612240565b506040517fd9a101a09eaa9fe77046ba7369eebc0db07b34a021e99ca83c0eb7e799322fd590600090a150505050565b6003548190600010611ed5576040805160e560020a62461bcd02815260206004820152600d60248201526000805160206122a4833981519152604482015290519081900360640190fd5b600160a060020a038116600081815260026020526040902054600380549091908110611efd57fe5b600091825260209091200154600160a060020a031614611f67576040805160e560020a62461bcd02815260206004820152600e60248201527f4e6f2073746f7265206f776e6572000000000000000000000000000000000000604482015290519081900360640190fd5b600154600010611fc1576040805160e560020a62461bcd02815260206004820152601160248201527f4e6f2061646d696e6973747261746f7273000000000000000000000000000000604482015290519081900360640190fd5b33600081815260208190526040902054600180549091908110611fe057fe5b600091825260209091200154600160a060020a03161461204a576040805160e560020a62461bcd02815260206004820152601c60248201527f41646d696e206164647265737320646f6573206e6f74206d6174636800000000604482015290519081900360640190fd5b600160a060020a038216600090815260026020908152604091829020600501805460ff19166001908117909155825190815291517fee5fc6703815cacbb8932fb9b2e11b662a3f10bc42d3c3d0aeb57886405574659281900390910190a15050565b600160a060020a038181166000908152600260208181526040808420805481850154600583015460048401546001948501805487516101009782161597909702600019011698909804601f810188900488028601880190965285855297986060988a988998899896979196959093169460ff909416939192909186918301828280156121795780601f1061214e57610100808354040283529160200191612179565b820191906000526020600020905b81548152906001019060200180831161215c57829003601f168201915b50989f939e50959c50939a509198509650505050505050565b828054600181600116156101000203166002900490600052602060002090601f016020900481019282601f106121d357805160ff1916838001178555612200565b82800160010185558215612200579182015b828111156122005782518255916020019190600101906121e5565b5061220c929150612269565b5090565b60a06040519081016040528060008152602001600081526020016060815260200160008152602001600081525090565b81548183558181111561226457600083815260209020612264918101908301612269565b505050565b6117cf91905b8082111561220c576000815560010161226f56004e6f7420612073746f72654f776e6572000000000000000000000000000000004e6f2073746f72654f776e6572000000000000000000000000000000000000004e6f74206163746976652073746f72654f776e65720000000000000000000000a165627a7a72305820ce3ec43378b4889ca05166fb18e727d896e4771fec8902913402aa34cccf3ee90029",
  "source": "pragma solidity ^0.4.24;\r\n\r\ncontract MarketPlace {\r\n\r\n    enum Roles { Guest, Administrator, StoreOwner, ActiveStoreOwner }\r\n\r\n    //Admin Data\r\n    struct Administrator{\r\n        uint index;\r\n        address addr;\r\n    }\r\n\r\n    mapping (address => Administrator) private administrators;\r\n    address[] private administratorIndexes ; //use to list objects\r\n\r\n    //Store Owner data\r\n    struct StoreOwner{\r\n        uint index;\r\n        string name;\r\n        address addr;\r\n        mapping(uint=>Store) stores;\r\n        uint[] storesIndexes;\r\n        bool isActive;\r\n    }\r\n\r\n    mapping (address => StoreOwner) private storeOwners;\r\n    address[] private storeOwnerIndexes; //use to list objects\r\n\r\n    struct Product {\r\n        uint index;\r\n        uint id; //to identify external database\r\n        string description;\r\n        uint price;\r\n        uint quantity;\r\n    }\r\n\r\n    uint private productId; //to identify a product in an external database\r\n\r\n    struct Store {\r\n        uint index;\r\n        string description;\r\n        mapping(uint=>Product) products;\r\n        uint[] productIndexes;\r\n        uint balance;\r\n    }\r\n\r\n    //Events\r\n    event LogStoreOwnerRequest();\r\n    event LogStoreOwnerStatusChanged(bool status);\r\n    event LogStoreOwnerDelete();\r\n    event LogStoreOwnerAddStore();\r\n    event LogStoreOwnerAddProduct();\r\n    event LogStoreOwnerDeleteProduct();\r\n    event LogStoreOwnerUpdateProduct();\r\n    event LogUserBuyProduct(uint quantityLeft);\r\n    event LogStoreOwnerWithdraw(uint balanceLeft);\r\n\r\n    //Check if a given address is Administrator\r\n    modifier administratorExists(address administratorAddress){\r\n        require(administratorIndexes.length > 0, \"No administrators\");\r\n        require(administratorIndexes[administrators[administratorAddress].index] == administratorAddress, \"Not administrator\");\r\n        _;\r\n    }\r\n\r\n    //Check if current account is Administrator\r\n    modifier isAdministrator(){\r\n        require(administratorIndexes.length > 0, \"No administrators\");\r\n        require(administratorIndexes[administrators[msg.sender].index] == msg.sender, \"Admin address does not match\");\r\n        _;\r\n    }\r\n\r\n    //Check if a given address is StoreOwner\r\n    modifier storeOwnerExists(address storeOwnerAddress){\r\n        require(storeOwnerIndexes.length > 0, \"No storeOwner\");\r\n        require(storeOwnerIndexes[storeOwners[storeOwnerAddress].index] == storeOwnerAddress, \"No store owner\");\r\n        _;\r\n    }\r\n\r\n    //Check if current account is StoreOwner\r\n    modifier isStoreOwner(){\r\n        require(storeOwnerIndexes.length > 0, \"No storeOwner\");\r\n        require(storeOwnerIndexes[storeOwners[msg.sender].index] == msg.sender, \"Not a storeOwner\");\r\n        _;\r\n    }\r\n\r\n    //Check if current account is ActiveStoreOwner\r\n    modifier isActiveStoreOwner(){\r\n        require(storeOwnerIndexes.length > 0, \"No storeOwner\");\r\n        require(storeOwnerIndexes[storeOwners[msg.sender].index] == msg.sender, \"Not a storeOwner\");\r\n        require(storeOwners[msg.sender].isActive == true, \"Not active storeOwner\");\r\n        _;\r\n    }\r\n\r\n    constructor() public {\r\n\r\n        //contract owner is the first administrator\r\n        administrators[msg.sender].addr = msg.sender;\r\n        administrators[msg.sender].index = administratorIndexes.push(msg.sender)-1;        \r\n    }\r\n\r\n    //Check the role of current account\r\n    function getUserRole() public view returns(Roles) {\r\n        \r\n        if(administratorIndexes.length > 0 && administratorIndexes[administrators[msg.sender].index] == msg.sender) {\r\n            return Roles.Administrator;\r\n        }\r\n        else if(storeOwnerIndexes.length > 0 && storeOwnerIndexes[storeOwners[msg.sender].index] == msg.sender) {\r\n            //it's a store owber, check if active\r\n            if(storeOwners[msg.sender].isActive == true){\r\n                return Roles.ActiveStoreOwner;\r\n            }\r\n            else{\r\n                return Roles.StoreOwner;\r\n            }\r\n        }\r\n        else{\r\n            return Roles.Guest;\r\n        }\r\n    }\r\n\r\n    //ADMINISTRATORS\r\n    function activateStoreOwner(address storeOwnerAddress) public storeOwnerExists(storeOwnerAddress) isAdministrator {\r\n\r\n        storeOwners[storeOwnerAddress].isActive = true;\r\n        emit LogStoreOwnerStatusChanged(true);\r\n    }\r\n\r\n    function deactivateStoreOwner(address storeOwnerAddress) public storeOwnerExists(storeOwnerAddress) isAdministrator {\r\n\r\n        storeOwners[storeOwnerAddress].isActive = false;\r\n        emit LogStoreOwnerStatusChanged(false);\r\n    }    \r\n\r\n    function getAdministratorsCount() public view returns(uint number){\r\n        number = administratorIndexes.length;\r\n    }\r\n\r\n    function getAdministratorAtIndex(uint index) public view returns(uint, address){\r\n        address adminAddress = administratorIndexes[index];\r\n        return (administrators[adminAddress].index, administrators[adminAddress].addr);\r\n    }\r\n\r\n    //delete a store owner (whether active or not)\r\n    function deleteStoreOwner(address storeOwnerAddress) public storeOwnerExists(storeOwnerAddress) isAdministrator {\r\n\r\n        //since we cannot delete a mapping, set to false\r\n        storeOwners[storeOwnerAddress].isActive = false;\r\n\r\n        uint rowToDelete = storeOwners[storeOwnerAddress].index;\r\n        address keyToMove = storeOwnerIndexes[storeOwnerIndexes.length-1];\r\n        storeOwnerIndexes[rowToDelete] = keyToMove;\r\n        storeOwners[keyToMove].index = rowToDelete;\r\n        storeOwnerIndexes.length--;\r\n\r\n        emit LogStoreOwnerDelete();\r\n    }\r\n\r\n    function addStore(string description) public isActiveStoreOwner returns (uint storeIndex){\r\n\r\n        storeIndex = storeOwners[msg.sender].storesIndexes.length;\r\n        storeOwners[msg.sender].storesIndexes.push(storeIndex);\r\n\r\n        storeOwners[msg.sender].stores[storeIndex].index = storeIndex;\r\n        storeOwners[msg.sender].stores[storeIndex].description = description;\r\n\r\n        emit LogStoreOwnerAddStore();\r\n    }\r\n\r\n    //Only store owner can add prodcut\r\n    function addProduct(uint storeIndex, string description, uint price, uint quantity) public \r\n    isActiveStoreOwner isStoreOwner returns (uint productIndex) {\r\n\r\n        productIndex = storeOwners[msg.sender].stores[storeIndex].productIndexes.length;\r\n        storeOwners[msg.sender].stores[storeIndex].productIndexes.push(productIndex);\r\n    \r\n        storeOwners[msg.sender].stores[storeIndex].products[productIndex].index = productIndex;\r\n        storeOwners[msg.sender].stores[storeIndex].products[productIndex].description = description;\r\n        storeOwners[msg.sender].stores[storeIndex].products[productIndex].price = price;\r\n        storeOwners[msg.sender].stores[storeIndex].products[productIndex].quantity = quantity;\r\n        storeOwners[msg.sender].stores[storeIndex].products[productIndex].id = productId;\r\n\r\n        productId = productId + 1; //unique identifier for Database\r\n\r\n        emit LogStoreOwnerAddProduct();\r\n    }\r\n\r\n    function updateProduct(uint storeIndex, uint productIndex, string description, uint price, uint quantity) public \r\n    isActiveStoreOwner isStoreOwner {\r\n\r\n        storeOwners[msg.sender].stores[storeIndex].products[productIndex].description = description;\r\n        storeOwners[msg.sender].stores[storeIndex].products[productIndex].price = price;\r\n        storeOwners[msg.sender].stores[storeIndex].products[productIndex].quantity = quantity;\r\n\r\n        emit LogStoreOwnerUpdateProduct();\r\n    }    \r\n\r\n    function getProductsCount(address storeOwnerAddress, uint storeIndex) public view returns(uint){\r\n\r\n        return storeOwners[storeOwnerAddress].stores[storeIndex].productIndexes.length;\r\n    }\r\n\r\n    function getProductAt(address storeOwnerAddress, uint storeIndex, uint productIndex) public view returns(uint, string, uint, uint, uint){\r\n\r\n        Product memory product = storeOwners[storeOwnerAddress].stores[storeIndex].products[productIndex];\r\n\r\n        return (product.index, product.description, product.price, product.quantity, product.id);\r\n    }\r\n\r\n    //Only store owner can delete prodcut\r\n    function deleteProduct(uint storeIndex, uint productIndex) public isActiveStoreOwner isStoreOwner {\r\n\r\n        uint rowToDelete = storeOwners[msg.sender].stores[storeIndex].products[productIndex].index;\r\n        uint keyToMove = storeOwners[msg.sender].stores[storeIndex].productIndexes[storeOwners[msg.sender].stores[storeIndex].productIndexes.length-1];\r\n        storeOwners[msg.sender].stores[storeIndex].productIndexes[rowToDelete] = keyToMove;\r\n        storeOwners[msg.sender].stores[storeIndex].products[keyToMove].index = rowToDelete;\r\n        storeOwners[msg.sender].stores[storeIndex].productIndexes.length--;\r\n\r\n        emit LogStoreOwnerDeleteProduct();\r\n    }\r\n\r\n    //GUEST\r\n    function requestStoreOwner(string name) public {\r\n        //if already exists throw\r\n        if(storeOwnerIndexes.length > 0 && storeOwnerIndexes[storeOwners[msg.sender].index] == msg.sender){\r\n            revert(\"Already a store owner\");\r\n        }\r\n\r\n        storeOwners[msg.sender].name = name;\r\n        storeOwners[msg.sender].addr = msg.sender;\r\n        storeOwners[msg.sender].index = storeOwnerIndexes.push(msg.sender) - 1;\r\n\r\n        emit LogStoreOwnerRequest();\r\n    }\r\n\r\n    function getStoreOwnerAtAddress(address storeOwnerAddress) public view\r\n     returns(uint _index, string _name, address _addr, bool _isActive, uint _numberStores){\r\n\r\n        return (storeOwners[storeOwnerAddress].index,\r\n        storeOwners[storeOwnerAddress].name,\r\n        storeOwners[storeOwnerAddress].addr,\r\n        storeOwners[storeOwnerAddress].isActive,\r\n        storeOwners[storeOwnerAddress].storesIndexes.length);\r\n    }    \r\n\r\n    function getStoreOwnerAtIndex(uint storeOwnerindex) public view\r\n        returns(uint _index, string _name, address _addr, bool _isActive, uint _numberStores){\r\n        \r\n        //StoreOwner memory storeOwner = storeOwners[storeOwnerIndexes[storeOwnerindex]];\r\n        //return(storeOwner.index, storeOwner.name, storeOwner.addr, storeOwner.isActive, storeOwner.storesIndexes.length);\r\n        return getStoreOwnerAtAddress(storeOwnerIndexes[storeOwnerindex]);\r\n    }\r\n\r\n    function getStoreOwnersCount() public view returns(uint count){\r\n\r\n        count = storeOwnerIndexes.length;\r\n    }\r\n\r\n    function getStoreAtIndex(address storeOwnerAddress, uint index) public view \r\n      returns(uint _index, string _description, uint _numberProducts, uint _balance, address _storeOwner){\r\n          \r\n        return(storeOwners[storeOwnerAddress].stores[index].index,\r\n               storeOwners[storeOwnerAddress].stores[index].description,\r\n               storeOwners[storeOwnerAddress].stores[index].productIndexes.length,\r\n               storeOwners[storeOwnerAddress].stores[index].balance,\r\n               storeOwnerAddress\r\n        );\r\n    }\r\n\r\n    function getStoresCount(address storeOwnerAddress) public view returns(uint number){\r\n        number = storeOwners[storeOwnerAddress].storesIndexes.length;\r\n    }\r\n \r\n    //Only the store owner can update its data\r\n    function updateStoreOwner(string name) public isActiveStoreOwner {\r\n\r\n        storeOwners[msg.sender].name = name;\r\n    }\r\n\r\n    function buyProduct(address storeOwnerAddress, uint storeIndex, uint productIndex, uint quantity) public payable returns(uint) {\r\n\r\n        Product storage product = storeOwners[storeOwnerAddress].stores[storeIndex].products[productIndex];\r\n\r\n        require(quantity <= product.quantity, \"Not enough product\");\r\n        //check sent eth is what is expected\r\n        require(msg.value == quantity * product.price, \"Not enought ETH sent\");\r\n        storeOwners[storeOwnerAddress].stores[storeIndex].balance += msg.value; \r\n        product.quantity -= quantity;\r\n\r\n        emit LogUserBuyProduct(product.quantity);\r\n    } \r\n\r\n    function storeOwnerWithdraw(uint storeIndex, uint amount) public isStoreOwner {\r\n        \r\n        //Use of  withdrawal pattern\r\n        require(storeOwners[msg.sender].stores[storeIndex].balance >= amount, \"Not enough funds\");\r\n        msg.sender.transfer(amount);\r\n        storeOwners[msg.sender].stores[storeIndex].balance -= amount;\r\n\r\n        emit LogStoreOwnerWithdraw(storeOwners[msg.sender].stores[storeIndex].balance);\r\n    }\r\n\r\n}\r\n",
  "sourcePath": "C:\\Users\\rtheu\\Dropbox\\dapps\\market-place\\contracts\\MarketPlace.sol",
  "compiler": {
    "name": "solc",
    "version": "0.4.24+commit.e67f0147.Emscripten.clang"
  },
  "schemaVersion": "2.0.1",
  "updatedAt": "2018-08-17T09:38:18.140Z"
}